{
    "_format": "hh-sol-artifact-1",
    "contractName": "RelayGateway",
    "sourceName": "contracts/Relayer.sol",
    "abi": [
        {
            "inputs": [
                {
                    "internalType": "address",
                    "name": "_relayer",
                    "type": "address"
                },
                {
                    "internalType": "bool",
                    "name": "_is_destination",
                    "type": "bool"
                }
            ],
            "stateMutability": "nonpayable",
            "type": "constructor"
        },
        {
            "anonymous": false,
            "inputs": [
                {
                    "indexed": false,
                    "internalType": "uint256",
                    "name": "uid",
                    "type": "uint256"
                },
                {
                    "indexed": false,
                    "internalType": "address",
                    "name": "relayInitiator",
                    "type": "address"
                },
                {
                    "indexed": false,
                    "internalType": "address",
                    "name": "relayTarget",
                    "type": "address"
                },
                {
                    "indexed": false,
                    "internalType": "bytes",
                    "name": "additionalCalldata",
                    "type": "bytes"
                },
                {
                    "indexed": false,
                    "internalType": "address",
                    "name": "sourceToken",
                    "type": "address"
                },
                {
                    "indexed": false,
                    "internalType": "address",
                    "name": "targetToken",
                    "type": "address"
                },
                {
                    "indexed": false,
                    "internalType": "uint256",
                    "name": "amount",
                    "type": "uint256"
                }
            ],
            "name": "RelayExecuted",
            "type": "event"
        },
        {
            "anonymous": false,
            "inputs": [
                {
                    "indexed": false,
                    "internalType": "uint256",
                    "name": "uid",
                    "type": "uint256"
                },
                {
                    "indexed": false,
                    "internalType": "address",
                    "name": "relayInitiator",
                    "type": "address"
                },
                {
                    "indexed": false,
                    "internalType": "address",
                    "name": "relayTarget",
                    "type": "address"
                },
                {
                    "indexed": false,
                    "internalType": "bytes",
                    "name": "additionalCalldata",
                    "type": "bytes"
                },
                {
                    "indexed": false,
                    "internalType": "address",
                    "name": "sourceToken",
                    "type": "address"
                },
                {
                    "indexed": false,
                    "internalType": "address",
                    "name": "targetToken",
                    "type": "address"
                },
                {
                    "indexed": false,
                    "internalType": "uint256",
                    "name": "amount",
                    "type": "uint256"
                }
            ],
            "name": "RelayRequested",
            "type": "event"
        },
        {
            "inputs": [
                {
                    "internalType": "contract IERC20",
                    "name": "_sourceToken",
                    "type": "address"
                },
                {
                    "internalType": "address",
                    "name": "_targetToken",
                    "type": "address"
                }
            ],
            "name": "addTokenPair",
            "outputs": [],
            "stateMutability": "nonpayable",
            "type": "function"
        },
        {
            "inputs": [
                {
                    "internalType": "uint256",
                    "name": "",
                    "type": "uint256"
                }
            ],
            "name": "availableTokens",
            "outputs": [
                {
                    "internalType": "contract IERC20",
                    "name": "",
                    "type": "address"
                }
            ],
            "stateMutability": "view",
            "type": "function"
        },
        {
            "inputs": [],
            "name": "calldataInterface",
            "outputs": [
                {
                    "internalType": "contract CalldataInterface",
                    "name": "",
                    "type": "address"
                }
            ],
            "stateMutability": "view",
            "type": "function"
        },
        {
            "inputs": [
                {
                    "components": [
                        {
                            "internalType": "uint256",
                            "name": "uid",
                            "type": "uint256"
                        },
                        {
                            "internalType": "address",
                            "name": "relayInitiator",
                            "type": "address"
                        },
                        {
                            "internalType": "address",
                            "name": "relayTarget",
                            "type": "address"
                        },
                        {
                            "internalType": "bytes",
                            "name": "additionalCalldata",
                            "type": "bytes"
                        },
                        {
                            "internalType": "address",
                            "name": "sourceToken",
                            "type": "address"
                        },
                        {
                            "internalType": "address",
                            "name": "targetToken",
                            "type": "address"
                        },
                        {
                            "internalType": "uint256",
                            "name": "amount",
                            "type": "uint256"
                        },
                        {
                            "internalType": "uint256",
                            "name": "executionResult",
                            "type": "uint256"
                        },
                        {
                            "internalType": "bytes32",
                            "name": "relayDataHash",
                            "type": "bytes32"
                        }
                    ],
                    "internalType": "struct RelayData",
                    "name": "_relayData",
                    "type": "tuple"
                }
            ],
            "name": "executeRelay",
            "outputs": [],
            "stateMutability": "nonpayable",
            "type": "function"
        },
        {
            "inputs": [
                {
                    "internalType": "uint256",
                    "name": "",
                    "type": "uint256"
                }
            ],
            "name": "executedRelays",
            "outputs": [
                {
                    "internalType": "uint256",
                    "name": "uid",
                    "type": "uint256"
                },
                {
                    "internalType": "address",
                    "name": "relayInitiator",
                    "type": "address"
                },
                {
                    "internalType": "address",
                    "name": "relayTarget",
                    "type": "address"
                },
                {
                    "internalType": "bytes",
                    "name": "additionalCalldata",
                    "type": "bytes"
                },
                {
                    "internalType": "address",
                    "name": "sourceToken",
                    "type": "address"
                },
                {
                    "internalType": "address",
                    "name": "targetToken",
                    "type": "address"
                },
                {
                    "internalType": "uint256",
                    "name": "amount",
                    "type": "uint256"
                },
                {
                    "internalType": "uint256",
                    "name": "executionResult",
                    "type": "uint256"
                },
                {
                    "internalType": "bytes32",
                    "name": "relayDataHash",
                    "type": "bytes32"
                }
            ],
            "stateMutability": "view",
            "type": "function"
        },
        {
            "inputs": [],
            "name": "getExecutedRelays",
            "outputs": [
                {
                    "components": [
                        {
                            "internalType": "uint256",
                            "name": "uid",
                            "type": "uint256"
                        },
                        {
                            "internalType": "address",
                            "name": "relayInitiator",
                            "type": "address"
                        },
                        {
                            "internalType": "address",
                            "name": "relayTarget",
                            "type": "address"
                        },
                        {
                            "internalType": "bytes",
                            "name": "additionalCalldata",
                            "type": "bytes"
                        },
                        {
                            "internalType": "address",
                            "name": "sourceToken",
                            "type": "address"
                        },
                        {
                            "internalType": "address",
                            "name": "targetToken",
                            "type": "address"
                        },
                        {
                            "internalType": "uint256",
                            "name": "amount",
                            "type": "uint256"
                        },
                        {
                            "internalType": "uint256",
                            "name": "executionResult",
                            "type": "uint256"
                        },
                        {
                            "internalType": "bytes32",
                            "name": "relayDataHash",
                            "type": "bytes32"
                        }
                    ],
                    "internalType": "struct RelayData[]",
                    "name": "",
                    "type": "tuple[]"
                }
            ],
            "stateMutability": "view",
            "type": "function"
        },
        {
            "inputs": [],
            "name": "getRequestedRelays",
            "outputs": [
                {
                    "components": [
                        {
                            "internalType": "uint256",
                            "name": "uid",
                            "type": "uint256"
                        },
                        {
                            "internalType": "address",
                            "name": "relayInitiator",
                            "type": "address"
                        },
                        {
                            "internalType": "address",
                            "name": "relayTarget",
                            "type": "address"
                        },
                        {
                            "internalType": "bytes",
                            "name": "additionalCalldata",
                            "type": "bytes"
                        },
                        {
                            "internalType": "address",
                            "name": "sourceToken",
                            "type": "address"
                        },
                        {
                            "internalType": "address",
                            "name": "targetToken",
                            "type": "address"
                        },
                        {
                            "internalType": "uint256",
                            "name": "amount",
                            "type": "uint256"
                        },
                        {
                            "internalType": "uint256",
                            "name": "executionResult",
                            "type": "uint256"
                        },
                        {
                            "internalType": "bytes32",
                            "name": "relayDataHash",
                            "type": "bytes32"
                        }
                    ],
                    "internalType": "struct RelayData[]",
                    "name": "",
                    "type": "tuple[]"
                }
            ],
            "stateMutability": "view",
            "type": "function"
        },
        {
            "inputs": [],
            "name": "is_destination",
            "outputs": [
                {
                    "internalType": "bool",
                    "name": "",
                    "type": "bool"
                }
            ],
            "stateMutability": "view",
            "type": "function"
        },
        {
            "inputs": [],
            "name": "owner",
            "outputs": [
                {
                    "internalType": "address",
                    "name": "",
                    "type": "address"
                }
            ],
            "stateMutability": "view",
            "type": "function"
        },
        {
            "inputs": [],
            "name": "relayer",
            "outputs": [
                {
                    "internalType": "address",
                    "name": "",
                    "type": "address"
                }
            ],
            "stateMutability": "view",
            "type": "function"
        },
        {
            "inputs": [
                {
                    "internalType": "contract IERC20",
                    "name": "_sourceToken",
                    "type": "address"
                },
                {
                    "internalType": "uint256",
                    "name": "tokenId",
                    "type": "uint256"
                }
            ],
            "name": "removeTokenPair",
            "outputs": [],
            "stateMutability": "nonpayable",
            "type": "function"
        },
        {
            "inputs": [
                {
                    "internalType": "address",
                    "name": "_relayTarget",
                    "type": "address"
                },
                {
                    "internalType": "bytes",
                    "name": "_additionalCalldata",
                    "type": "bytes"
                },
                {
                    "internalType": "address",
                    "name": "_sourceToken",
                    "type": "address"
                },
                {
                    "internalType": "uint256",
                    "name": "_amount",
                    "type": "uint256"
                }
            ],
            "name": "requestRelay",
            "outputs": [],
            "stateMutability": "nonpayable",
            "type": "function"
        },
        {
            "inputs": [
                {
                    "internalType": "uint256",
                    "name": "",
                    "type": "uint256"
                }
            ],
            "name": "requestedRelays",
            "outputs": [
                {
                    "internalType": "uint256",
                    "name": "uid",
                    "type": "uint256"
                },
                {
                    "internalType": "address",
                    "name": "relayInitiator",
                    "type": "address"
                },
                {
                    "internalType": "address",
                    "name": "relayTarget",
                    "type": "address"
                },
                {
                    "internalType": "bytes",
                    "name": "additionalCalldata",
                    "type": "bytes"
                },
                {
                    "internalType": "address",
                    "name": "sourceToken",
                    "type": "address"
                },
                {
                    "internalType": "address",
                    "name": "targetToken",
                    "type": "address"
                },
                {
                    "internalType": "uint256",
                    "name": "amount",
                    "type": "uint256"
                },
                {
                    "internalType": "uint256",
                    "name": "executionResult",
                    "type": "uint256"
                },
                {
                    "internalType": "bytes32",
                    "name": "relayDataHash",
                    "type": "bytes32"
                }
            ],
            "stateMutability": "view",
            "type": "function"
        },
        {
            "inputs": [
                {
                    "internalType": "address",
                    "name": "_owner",
                    "type": "address"
                }
            ],
            "name": "setOwner",
            "outputs": [],
            "stateMutability": "nonpayable",
            "type": "function"
        },
        {
            "inputs": [
                {
                    "internalType": "uint256",
                    "name": "_uid",
                    "type": "uint256"
                },
                {
                    "internalType": "uint256",
                    "name": "_executionResult",
                    "type": "uint256"
                },
                {
                    "internalType": "bytes32",
                    "name": "relayDataHash",
                    "type": "bytes32"
                }
            ],
            "name": "setRelayResult",
            "outputs": [],
            "stateMutability": "nonpayable",
            "type": "function"
        },
        {
            "inputs": [
                {
                    "internalType": "address",
                    "name": "_relayer",
                    "type": "address"
                }
            ],
            "name": "setRelayer",
            "outputs": [],
            "stateMutability": "nonpayable",
            "type": "function"
        },
        {
            "inputs": [
                {
                    "internalType": "contract IERC20",
                    "name": "",
                    "type": "address"
                }
            ],
            "name": "tokenPair",
            "outputs": [
                {
                    "internalType": "address",
                    "name": "",
                    "type": "address"
                }
            ],
            "stateMutability": "view",
            "type": "function"
        }
    ],
    "bytecode": "0x60806040523480156200001157600080fd5b5060405162001f1538038062001f158339810160408190526200003491620000d5565b6001600081905580546001600160a01b0319163317905560028054821515600160a01b026001600160a81b03199091166001600160a01b038516171790556040516200008090620000c7565b604051809103906000f0801580156200009d573d6000803e3d6000fd5b50600380546001600160a01b0319166001600160a01b039290921691909117905550620001239050565b6103ef8062001b2683390190565b60008060408385031215620000e957600080fd5b82516001600160a01b03811681146200010157600080fd5b602084015190925080151581146200011857600080fd5b809150509250929050565b6119f380620001336000396000f3fe608060405234801561001057600080fd5b506004361061010b5760003560e01c80638406c079116100a2578063a23b907f11610071578063a23b907f14610251578063a7c87ec214610259578063ad64d0681461026c578063e897e8de1461027f578063fe2ed6681461029257600080fd5b80638406c079146101f45780638da5cb5b1461020757806393d99d6e1461021a57806393f3dd481461023e57600080fd5b806333dd6d85116100de57806333dd6d851461019157806349d6ec84146101b95780636548e9bc146101cc578063747dcd08146101df57600080fd5b806313af403514610110578063148f5933146101255780631cc6391e14610138578063267422e71461017e575b600080fd5b61012361011e3660046112d1565b6102a5565b005b6101236101333660046112f5565b6102fa565b6101616101463660046112d1565b6007602052600090815260409020546001600160a01b031681565b6040516001600160a01b0390911681526020015b60405180910390f35b61012361018c3660046113ee565b610433565b6101a461019f3660046114cb565b61072f565b6040516101759998979695949392919061152a565b6101236101c7366004611590565b61082d565b6101236101da3660046112d1565b610a06565b6101e7610a52565b60405161017591906115bc565b600254610161906001600160a01b031681565b600154610161906001600160a01b031681565b60025461022e90600160a01b900460ff1681565b6040519015158152602001610175565b600354610161906001600160a01b031681565b6101e7610c25565b6101236102673660046116a4565b610df2565b61016161027a3660046114cb565b610eeb565b61012361028d3660046116dd565b610f15565b6101a46102a03660046114cb565b6111f5565b6001546001600160a01b031633146102d85760405162461bcd60e51b81526004016102cf90611747565b60405180910390fd5b600180546001600160a01b0319166001600160a01b0392909216919091179055565b6002546001600160a01b031633146103425760405162461bcd60e51b815260206004820152600b60248201526a2737ba103932b630bcb2b960a91b60448201526064016102cf565b60045483106103815760405162461bcd60e51b815260206004820152600b60248201526a125b9d985b1a59081d5a5960aa1b60448201526064016102cf565b81600114806103905750816002145b6103dc5760405162461bcd60e51b815260206004820152601860248201527f496e76616c696420657865637574696f6e20726573756c74000000000000000060448201526064016102cf565b81600484815481106103f0576103f061176a565b90600052602060002090600902016007018190555080600484815481106104195761041961176a565b906000526020600020906009020160080181905550505050565b6002546001600160a01b0316331461047b5760405162461bcd60e51b815260206004820152600b60248201526a2737ba103932b630bcb2b960a91b60448201526064016102cf565b60c08101511561050b57608081015160408083015160c0840151915163a9059cbb60e01b81526001600160a01b03918216600482015260248101929092529091169063a9059cbb906044016020604051808303816000875af11580156104e5573d6000803e3d6000fd5b505050506040513d601f19601f820116820180604052508101906105099190611780565b505b60608101515115610582576003546040808301516060840151915163bca8c7b560e01b81526001600160a01b039093169263bca8c7b59261054f92916004016117a2565b600060405180830381600087803b15801561056957600080fd5b505af115801561057d573d6000803e3d6000fd5b505050505b60048054600181018255600091909152815160099091027f8a35acfbc15ff81a39ae7d344fd709f28e8600b4aa8c65c6b64bfe7fe36bd19b810191825560208301517f8a35acfbc15ff81a39ae7d344fd709f28e8600b4aa8c65c6b64bfe7fe36bd19c820180546001600160a01b039283166001600160a01b03199182161790915560408501517f8a35acfbc15ff81a39ae7d344fd709f28e8600b4aa8c65c6b64bfe7fe36bd19d8401805491909316911617905560608301518392917f8a35acfbc15ff81a39ae7d344fd709f28e8600b4aa8c65c6b64bfe7fe36bd19e019061066c9082611851565b506080828101516004830180546001600160a01b03199081166001600160a01b039384161790915560a080860151600586018054909316931692909217905560c080850151600685015560e085015160078501556101009094015160089093019290925583516020850151604080870151606088015194880151958801519688015191517f8d80bcc3460b53031d8aa27a772098820b942987d9c639cb66c8318541841e819761072497959694959294939091611911565b60405180910390a150565b6005818154811061073f57600080fd5b600091825260209091206009909102018054600182015460028301546003840180549395506001600160a01b0392831694929091169261077e906117ce565b80601f01602080910402602001604051908101604052809291908181526020018280546107aa906117ce565b80156107f75780601f106107cc576101008083540402835291602001916107f7565b820191906000526020600020905b8154815290600101906020018083116107da57829003601f168201915b505050600484015460058501546006860154600787015460089097015495966001600160a01b0393841696929093169450925089565b6001546001600160a01b031633146108575760405162461bcd60e51b81526004016102cf90611747565b6001600160a01b03828116600090815260076020526040902054166108be5760405162461bcd60e51b815260206004820152601960248201527f546f6b656e207061697220646f6573206e6f742065786973740000000000000060448201526064016102cf565b816001600160a01b0316600682815481106108db576108db61176a565b6000918252602090912001546001600160a01b0316146109305760405162461bcd60e51b815260206004820152601060248201526f125b9d985b1a59081d1bdad95b881a5960821b60448201526064016102cf565b6006805461094090600190611975565b815481106109505761095061176a565b600091825260209091200154600680546001600160a01b03909216918390811061097c5761097c61176a565b9060005260206000200160006101000a8154816001600160a01b0302191690836001600160a01b0316021790555060068054806109bb576109bb61198e565b60008281526020808220830160001990810180546001600160a01b031990811690915593019093556001600160a01b0394909416845260079091526040909220805490921690915550565b6001546001600160a01b03163314610a305760405162461bcd60e51b81526004016102cf90611747565b600280546001600160a01b0319166001600160a01b0392909216919091179055565b60055460609060009067ffffffffffffffff811115610a7357610a73611321565b604051908082528060200260200182016040528015610aac57816020015b610a9961125e565b815260200190600190039081610a915790505b50905060005b600554811015610c1f5760058181548110610acf57610acf61176a565b6000918252602091829020604080516101208101825260099093029091018054835260018101546001600160a01b0390811694840194909452600281015490931690820152600382018054919291606084019190610b2c906117ce565b80601f0160208091040260200160405190810160405280929190818152602001828054610b58906117ce565b8015610ba55780601f10610b7a57610100808354040283529160200191610ba5565b820191906000526020600020905b815481529060010190602001808311610b8857829003601f168201915b505050918352505060048201546001600160a01b0390811660208301526005830154166040820152600682015460608201526007820154608082015260089091015460a0909101528251839083908110610c0157610c0161176a565b60200260200101819052508080610c17906119a4565b915050610ab2565b50919050565b60045460609060009067ffffffffffffffff811115610c4657610c46611321565b604051908082528060200260200182016040528015610c7f57816020015b610c6c61125e565b815260200190600190039081610c645790505b50905060005b600454811015610c1f5760048181548110610ca257610ca261176a565b6000918252602091829020604080516101208101825260099093029091018054835260018101546001600160a01b0390811694840194909452600281015490931690820152600382018054919291606084019190610cff906117ce565b80601f0160208091040260200160405190810160405280929190818152602001828054610d2b906117ce565b8015610d785780601f10610d4d57610100808354040283529160200191610d78565b820191906000526020600020905b815481529060010190602001808311610d5b57829003601f168201915b505050918352505060048201546001600160a01b0390811660208301526005830154166040820152600682015460608201526007820154608082015260089091015460a0909101528251839083908110610dd457610dd461176a565b60200260200101819052508080610dea906119a4565b915050610c85565b6001546001600160a01b03163314610e1c5760405162461bcd60e51b81526004016102cf90611747565b6001600160a01b038281166000908152600760205260409020541615610e845760405162461bcd60e51b815260206004820152601960248201527f546f6b656e207061697220616c7265616479206578697374730000000000000060448201526064016102cf565b60068054600181019091557ff652222313e28459528d920b65115c16c04f3efc82aaedc97be59f3f377c0d3f0180546001600160a01b039384166001600160a01b031991821681179092556000918252600760205260409091208054929093169116179055565b60068181548110610efb57600080fd5b6000918252602090912001546001600160a01b0316905081565b610f1d611205565b6001600160a01b038083166000908152600760205260409020541680610f7b5760405162461bcd60e51b8152602060048201526013602482015272151bdad95b881b9bdd081cdd5c1c1bdc9d1959606a1b60448201526064016102cf565b60408051610120810182526005805480835233602084019081526001600160a01b038a8116958501958652606085018a8152898216608087015287821660a087015260c08601899052600060e08701819052610100870181905260018501865594909452845160099093027f036b6384b5eca791c62761152d0c79bb0604c104a5fb6f4eb0703f3154bb3db0810193845591517f036b6384b5eca791c62761152d0c79bb0604c104a5fb6f4eb0703f3154bb3db1830180549183166001600160a01b031992831617905595517f036b6384b5eca791c62761152d0c79bb0604c104a5fb6f4eb0703f3154bb3db283018054919092169616959095179094559051919283927f036b6384b5eca791c62761152d0c79bb0604c104a5fb6f4eb0703f3154bb3db3909101906110ae9082611851565b506080820151600482810180546001600160a01b03199081166001600160a01b039485161790915560a085015160058501805490921690841617905560c0840151600684015560e08401516007840155610100909301516008909201919091556001546040516323b872dd60e01b8152339381019390935281166024830152604482018590528516906323b872dd906064016020604051808303816000875af115801561115f573d6000803e3d6000fd5b505050506040513d601f19601f820116820180604052508101906111839190611780565b507f4599a14afb01d51b75540a961262ad1157de6ef44f1780ef686af91fef984be7816000015182602001518360400151846060015185608001518660a001518760c001516040516111db9796959493929190611911565b60405180910390a150506111ef6001600055565b50505050565b6004818154811061073f57600080fd5b6002600054036112575760405162461bcd60e51b815260206004820152601f60248201527f5265656e7472616e637947756172643a207265656e7472616e742063616c6c0060448201526064016102cf565b6002600055565b60408051610120810182526000808252602082018190529181018290526060808201526080810182905260a0810182905260c0810182905260e0810182905261010081019190915290565b6001600160a01b03811681146112be57600080fd5b50565b80356112cc816112a9565b919050565b6000602082840312156112e357600080fd5b81356112ee816112a9565b9392505050565b60008060006060848603121561130a57600080fd5b505081359360208301359350604090920135919050565b634e487b7160e01b600052604160045260246000fd5b604051610120810167ffffffffffffffff8111828210171561135b5761135b611321565b60405290565b600082601f83011261137257600080fd5b813567ffffffffffffffff8082111561138d5761138d611321565b604051601f8301601f19908116603f011681019082821181831017156113b5576113b5611321565b816040528381528660208588010111156113ce57600080fd5b836020870160208301376000602085830101528094505050505092915050565b60006020828403121561140057600080fd5b813567ffffffffffffffff8082111561141857600080fd5b90830190610120828603121561142d57600080fd5b611435611337565b82358152611445602084016112c1565b6020820152611456604084016112c1565b604082015260608301358281111561146d57600080fd5b61147987828601611361565b60608301525061148b608084016112c1565b608082015261149c60a084016112c1565b60a082015260c0838101359082015260e080840135908201526101009283013592810192909252509392505050565b6000602082840312156114dd57600080fd5b5035919050565b6000815180845260005b8181101561150a576020818501810151868301820152016114ee565b506000602082860101526020601f19601f83011685010191505092915050565b8981526001600160a01b03898116602083015288811660408301526101206060830181905260009161155e8483018b6114e4565b98811660808501529690961660a08301525060c081019390935260e08301919091526101009091015250949350505050565b600080604083850312156115a357600080fd5b82356115ae816112a9565b946020939093013593505050565b60006020808301818452808551808352604092508286019150828160051b87010184880160005b8381101561169657603f19898403018552815180518452878101516001600160a01b03908116898601528782015116878501526060808201516101208287018190529190611633838801826114e4565b92505050608080830151611651828801826001600160a01b03169052565b505060a0828101516001600160a01b03169086015260c0808301519086015260e0808301519086015261010091820151919094015293860193908601906001016115e3565b509098975050505050505050565b600080604083850312156116b757600080fd5b82356116c2816112a9565b915060208301356116d2816112a9565b809150509250929050565b600080600080608085870312156116f357600080fd5b84356116fe816112a9565b9350602085013567ffffffffffffffff81111561171a57600080fd5b61172687828801611361565b9350506040850135611737816112a9565b9396929550929360600135925050565b6020808252600990820152682737ba1037bbb732b960b91b604082015260600190565b634e487b7160e01b600052603260045260246000fd5b60006020828403121561179257600080fd5b815180151581146112ee57600080fd5b6001600160a01b03831681526040602082018190526000906117c6908301846114e4565b949350505050565b600181811c908216806117e257607f821691505b602082108103610c1f57634e487b7160e01b600052602260045260246000fd5b601f82111561184c57600081815260208120601f850160051c810160208610156118295750805b601f850160051c820191505b8181101561184857828155600101611835565b5050505b505050565b815167ffffffffffffffff81111561186b5761186b611321565b61187f8161187984546117ce565b84611802565b602080601f8311600181146118b4576000841561189c5750858301515b600019600386901b1c1916600185901b178555611848565b600085815260208120601f198616915b828110156118e3578886015182559484019460019091019084016118c4565b50858210156119015787850151600019600388901b60f8161c191681555b5050505050600190811b01905550565b878152600060018060a01b038089166020840152808816604084015260e0606084015261194160e08401886114e4565b95811660808401529390931660a082015260c0015250949350505050565b634e487b7160e01b600052601160045260246000fd5b818103818111156119885761198861195f565b92915050565b634e487b7160e01b600052603160045260246000fd5b6000600182016119b6576119b661195f565b506001019056fea2646970667358221220bdb0afbabb138e7d92b6db112a8f2328bca0b69984146700d7f60fd31cebb2e864736f6c63430008140033608060405234801561001057600080fd5b5060016000556103ca806100256000396000f3fe608060405234801561001057600080fd5b506004361061002b5760003560e01c8063bca8c7b514610030575b600080fd5b61004361003e36600461020b565b610045565b005b61004d610143565b600080836001600160a01b03168360405161006891906102ce565b6000604051808303816000865af19150503d80600081146100a5576040519150601f19603f3d011682016040523d82523d6000602084013e6100aa565b606091505b509150915081610133576044815110156101005760405162461bcd60e51b815260206004820152601260248201527122b93937b91034b71032bc32b1baba34b7b760711b60448201526064015b60405180910390fd5b6004810190508080602001905181019061011a91906102ea565b60405162461bcd60e51b81526004016100f79190610361565b505061013f6001600055565b5050565b6002600054036101955760405162461bcd60e51b815260206004820152601f60248201527f5265656e7472616e637947756172643a207265656e7472616e742063616c6c0060448201526064016100f7565b6002600055565b634e487b7160e01b600052604160045260246000fd5b604051601f8201601f1916810167ffffffffffffffff811182821017156101db576101db61019c565b604052919050565b600067ffffffffffffffff8211156101fd576101fd61019c565b50601f01601f191660200190565b6000806040838503121561021e57600080fd5b82356001600160a01b038116811461023557600080fd5b9150602083013567ffffffffffffffff81111561025157600080fd5b8301601f8101851361026257600080fd5b8035610275610270826101e3565b6101b2565b81815286602083850101111561028a57600080fd5b816020840160208301376000602083830101528093505050509250929050565b60005b838110156102c55781810151838201526020016102ad565b50506000910152565b600082516102e08184602087016102aa565b9190910192915050565b6000602082840312156102fc57600080fd5b815167ffffffffffffffff81111561031357600080fd5b8201601f8101841361032457600080fd5b8051610332610270826101e3565b81815285602083850101111561034757600080fd5b6103588260208301602086016102aa565b95945050505050565b60208152600082518060208401526103808160408501602087016102aa565b601f01601f1916919091016040019291505056fea2646970667358221220810b4f607ed49181bf2cb08bab5cb493faa8eacf60ae2322f2b88ea4e03230ea64736f6c63430008140033",
    "linkReferences": {},
    "deployedLinkReferences": {}
}